{
	"_format": "hh-sol-artifact-1",
	"contractName": "RoboPunks",
	"sourceName": "contracts/RoboPunks.sol",
	"abi": [
		{
			"inputs": [],
			"stateMutability": "payable",
			"type": "constructor"
		},
		{
			"anonymous": false,
			"inputs": [
				{
					"indexed": true,
					"internalType": "address",
					"name": "owner",
					"type": "address"
				},
				{
					"indexed": true,
					"internalType": "address",
					"name": "approved",
					"type": "address"
				},
				{
					"indexed": true,
					"internalType": "uint256",
					"name": "tokenId",
					"type": "uint256"
				}
			],
			"name": "Approval",
			"type": "event"
		},
		{
			"anonymous": false,
			"inputs": [
				{
					"indexed": true,
					"internalType": "address",
					"name": "owner",
					"type": "address"
				},
				{
					"indexed": true,
					"internalType": "address",
					"name": "operator",
					"type": "address"
				},
				{
					"indexed": false,
					"internalType": "bool",
					"name": "approved",
					"type": "bool"
				}
			],
			"name": "ApprovalForAll",
			"type": "event"
		},
		{
			"anonymous": false,
			"inputs": [
				{
					"indexed": true,
					"internalType": "address",
					"name": "previousOwner",
					"type": "address"
				},
				{
					"indexed": true,
					"internalType": "address",
					"name": "newOwner",
					"type": "address"
				}
			],
			"name": "OwnershipTransferred",
			"type": "event"
		},
		{
			"anonymous": false,
			"inputs": [
				{
					"indexed": true,
					"internalType": "address",
					"name": "from",
					"type": "address"
				},
				{
					"indexed": true,
					"internalType": "address",
					"name": "to",
					"type": "address"
				},
				{
					"indexed": true,
					"internalType": "uint256",
					"name": "tokenId",
					"type": "uint256"
				}
			],
			"name": "Transfer",
			"type": "event"
		},
		{
			"inputs": [
				{
					"internalType": "address",
					"name": "to",
					"type": "address"
				},
				{
					"internalType": "uint256",
					"name": "tokenId",
					"type": "uint256"
				}
			],
			"name": "approve",
			"outputs": [],
			"stateMutability": "nonpayable",
			"type": "function"
		},
		{
			"inputs": [
				{
					"internalType": "address",
					"name": "owner",
					"type": "address"
				}
			],
			"name": "balanceOf",
			"outputs": [
				{
					"internalType": "uint256",
					"name": "",
					"type": "uint256"
				}
			],
			"stateMutability": "view",
			"type": "function"
		},
		{
			"inputs": [
				{
					"internalType": "uint256",
					"name": "tokenId",
					"type": "uint256"
				}
			],
			"name": "getApproved",
			"outputs": [
				{
					"internalType": "address",
					"name": "",
					"type": "address"
				}
			],
			"stateMutability": "view",
			"type": "function"
		},
		{
			"inputs": [
				{
					"internalType": "address",
					"name": "owner",
					"type": "address"
				},
				{
					"internalType": "address",
					"name": "operator",
					"type": "address"
				}
			],
			"name": "isApprovedForAll",
			"outputs": [
				{
					"internalType": "bool",
					"name": "",
					"type": "bool"
				}
			],
			"stateMutability": "view",
			"type": "function"
		},
		{
			"inputs": [],
			"name": "isPublicMintEnabled",
			"outputs": [
				{
					"internalType": "bool",
					"name": "",
					"type": "bool"
				}
			],
			"stateMutability": "view",
			"type": "function"
		},
		{
			"inputs": [],
			"name": "maxPerWallet",
			"outputs": [
				{
					"internalType": "uint256",
					"name": "",
					"type": "uint256"
				}
			],
			"stateMutability": "view",
			"type": "function"
		},
		{
			"inputs": [],
			"name": "maxSupply",
			"outputs": [
				{
					"internalType": "uint256",
					"name": "",
					"type": "uint256"
				}
			],
			"stateMutability": "view",
			"type": "function"
		},
		{
			"inputs": [
				{
					"internalType": "uint256",
					"name": "quantity_",
					"type": "uint256"
				}
			],
			"name": "mint",
			"outputs": [],
			"stateMutability": "payable",
			"type": "function"
		},
		{
			"inputs": [],
			"name": "mintPrice",
			"outputs": [
				{
					"internalType": "uint256",
					"name": "",
					"type": "uint256"
				}
			],
			"stateMutability": "view",
			"type": "function"
		},
		{
			"inputs": [],
			"name": "name",
			"outputs": [
				{
					"internalType": "string",
					"name": "",
					"type": "string"
				}
			],
			"stateMutability": "view",
			"type": "function"
		},
		{
			"inputs": [],
			"name": "owner",
			"outputs": [
				{
					"internalType": "address",
					"name": "",
					"type": "address"
				}
			],
			"stateMutability": "view",
			"type": "function"
		},
		{
			"inputs": [
				{
					"internalType": "uint256",
					"name": "tokenId",
					"type": "uint256"
				}
			],
			"name": "ownerOf",
			"outputs": [
				{
					"internalType": "address",
					"name": "",
					"type": "address"
				}
			],
			"stateMutability": "view",
			"type": "function"
		},
		{
			"inputs": [],
			"name": "renounceOwnership",
			"outputs": [],
			"stateMutability": "nonpayable",
			"type": "function"
		},
		{
			"inputs": [
				{
					"internalType": "address",
					"name": "from",
					"type": "address"
				},
				{
					"internalType": "address",
					"name": "to",
					"type": "address"
				},
				{
					"internalType": "uint256",
					"name": "tokenId",
					"type": "uint256"
				}
			],
			"name": "safeTransferFrom",
			"outputs": [],
			"stateMutability": "nonpayable",
			"type": "function"
		},
		{
			"inputs": [
				{
					"internalType": "address",
					"name": "from",
					"type": "address"
				},
				{
					"internalType": "address",
					"name": "to",
					"type": "address"
				},
				{
					"internalType": "uint256",
					"name": "tokenId",
					"type": "uint256"
				},
				{
					"internalType": "bytes",
					"name": "_data",
					"type": "bytes"
				}
			],
			"name": "safeTransferFrom",
			"outputs": [],
			"stateMutability": "nonpayable",
			"type": "function"
		},
		{
			"inputs": [
				{
					"internalType": "address",
					"name": "operator",
					"type": "address"
				},
				{
					"internalType": "bool",
					"name": "approved",
					"type": "bool"
				}
			],
			"name": "setApprovalForAll",
			"outputs": [],
			"stateMutability": "nonpayable",
			"type": "function"
		},
		{
			"inputs": [
				{
					"internalType": "string",
					"name": "baseTokenUri_",
					"type": "string"
				}
			],
			"name": "setbaseTokenUri",
			"outputs": [],
			"stateMutability": "nonpayable",
			"type": "function"
		},
		{
			"inputs": [
				{
					"internalType": "bool",
					"name": "isPublicMintEnabled_",
					"type": "bool"
				}
			],
			"name": "setisPublicMintEnabled",
			"outputs": [],
			"stateMutability": "nonpayable",
			"type": "function"
		},
		{
			"inputs": [
				{
					"internalType": "bytes4",
					"name": "interfaceId",
					"type": "bytes4"
				}
			],
			"name": "supportsInterface",
			"outputs": [
				{
					"internalType": "bool",
					"name": "",
					"type": "bool"
				}
			],
			"stateMutability": "view",
			"type": "function"
		},
		{
			"inputs": [],
			"name": "symbol",
			"outputs": [
				{
					"internalType": "string",
					"name": "",
					"type": "string"
				}
			],
			"stateMutability": "view",
			"type": "function"
		},
		{
			"inputs": [
				{
					"internalType": "uint256",
					"name": "tokenId_",
					"type": "uint256"
				}
			],
			"name": "tokenURI",
			"outputs": [
				{
					"internalType": "string",
					"name": "",
					"type": "string"
				}
			],
			"stateMutability": "view",
			"type": "function"
		},
		{
			"inputs": [],
			"name": "totalSupply",
			"outputs": [
				{
					"internalType": "uint256",
					"name": "",
					"type": "uint256"
				}
			],
			"stateMutability": "view",
			"type": "function"
		},
		{
			"inputs": [
				{
					"internalType": "address",
					"name": "from",
					"type": "address"
				},
				{
					"internalType": "address",
					"name": "to",
					"type": "address"
				},
				{
					"internalType": "uint256",
					"name": "tokenId",
					"type": "uint256"
				}
			],
			"name": "transferFrom",
			"outputs": [],
			"stateMutability": "nonpayable",
			"type": "function"
		},
		{
			"inputs": [
				{
					"internalType": "address",
					"name": "newOwner",
					"type": "address"
				}
			],
			"name": "transferOwnership",
			"outputs": [],
			"stateMutability": "nonpayable",
			"type": "function"
		},
		{
			"inputs": [
				{
					"internalType": "address",
					"name": "",
					"type": "address"
				}
			],
			"name": "walletMints",
			"outputs": [
				{
					"internalType": "uint256",
					"name": "",
					"type": "uint256"
				}
			],
			"stateMutability": "view",
			"type": "function"
		},
		{
			"inputs": [],
			"name": "withdraw",
			"outputs": [],
			"stateMutability": "nonpayable",
			"type": "function"
		},
		{
			"inputs": [],
			"name": "withdrawWallet",
			"outputs": [
				{
					"internalType": "address payable",
					"name": "",
					"type": "address"
				}
			],
			"stateMutability": "view",
			"type": "function"
		}
	],
	"bytecode": "0x60806040526040518060400160405280600981526020017f526f626f50756e6b7300000000000000000000000000000000000000000000008152506040518060400160405280600281526020017f5250000000000000000000000000000000000000000000000000000000000000815250816000908051906020019062000088929190620001bf565b508060019080519060200190620000a1929190620001bf565b505050620000c4620000b8620000f160201b60201c565b620000f960201b60201c565b66071afd498d000060078190555060006008819055506103e86009819055506003600a81905550620002d4565b600033905090565b6000600660009054906101000a900473ffffffffffffffffffffffffffffffffffffffff16905081600660006101000a81548173ffffffffffffffffffffffffffffffffffffffff021916908373ffffffffffffffffffffffffffffffffffffffff1602179055508173ffffffffffffffffffffffffffffffffffffffff168173ffffffffffffffffffffffffffffffffffffffff167f8be0079c531659141344cd1fd0a4f28419497f9722a3daafe3b4186f6b6457e060405160405180910390a35050565b828054620001cd906200026f565b90600052602060002090601f016020900481019282620001f157600085556200023d565b82601f106200020c57805160ff19168380011785556200023d565b828001600101855582156200023d579182015b828111156200023c5782518255916020019190600101906200021f565b5b5090506200024c919062000250565b5090565b5b808211156200026b57600081600090555060010162000251565b5090565b600060028204905060018216806200028857607f821691505b602082108114156200029f576200029e620002a5565b5b50919050565b7f4e487b7100000000000000000000000000000000000000000000000000000000600052602260045260246000fd5b6137e980620002e46000396000f3fe60806040526004361061019c5760003560e01c806370a08231116100ec578063b88d4fde1161008a578063d5abeb0111610064578063d5abeb0114610593578063e985e9c5146105be578063f0293fd3146105fb578063f2fde38b146106385761019c565b8063b88d4fde14610504578063b90aebe21461052d578063c87b56dd146105565761019c565b80638da5cb5b116100c65780638da5cb5b1461046957806395d89b4114610494578063a0712d68146104bf578063a22cb465146104db5761019c565b806370a08231146103ea578063715018a61461042757806385d178f41461043e5761019c565b806318160ddd1161015957806342842e0e1161013357806342842e0e1461032e578063453c2310146103575780636352211e146103825780636817c76c146103bf5761019c565b806318160ddd146102c357806323b872dd146102ee5780633ccfd60b146103175761019c565b80630116bc2d146101a157806301ffc9a7146101cc57806306fdde0314610209578063081812fc146102345780630943d07414610271578063095ea7b31461029a575b600080fd5b3480156101ad57600080fd5b506101b6610661565b6040516101c39190612af4565b60405180910390f35b3480156101d857600080fd5b506101f360048036038101906101ee91906124eb565b610674565b6040516102009190612af4565b60405180910390f35b34801561021557600080fd5b5061021e610756565b60405161022b9190612b0f565b60405180910390f35b34801561024057600080fd5b5061025b60048036038101906102569190612582565b6107e8565b6040516102689190612a72565b60405180910390f35b34801561027d57600080fd5b506102986004803603810190610293919061253d565b61086d565b005b3480156102a657600080fd5b506102c160048036038101906102bc9190612486565b6108ff565b005b3480156102cf57600080fd5b506102d8610a17565b6040516102e59190612dd1565b60405180910390f35b3480156102fa57600080fd5b5061031560048036038101906103109190612380565b610a1d565b005b34801561032357600080fd5b5061032c610a7d565b005b34801561033a57600080fd5b5061035560048036038101906103509190612380565b610bca565b005b34801561036357600080fd5b5061036c610bea565b6040516103799190612dd1565b60405180910390f35b34801561038e57600080fd5b506103a960048036038101906103a49190612582565b610bf0565b6040516103b69190612a72565b60405180910390f35b3480156103cb57600080fd5b506103d4610ca2565b6040516103e19190612dd1565b60405180910390f35b3480156103f657600080fd5b50610411600480360381019061040c919061231b565b610ca8565b60405161041e9190612dd1565b60405180910390f35b34801561043357600080fd5b5061043c610d60565b005b34801561044a57600080fd5b50610453610de8565b6040516104609190612a8d565b60405180910390f35b34801561047557600080fd5b5061047e610e0e565b60405161048b9190612a72565b60405180910390f35b3480156104a057600080fd5b506104a9610e38565b6040516104b69190612b0f565b60405180910390f35b6104d960048036038101906104d49190612582565b610eca565b005b3480156104e757600080fd5b5061050260048036038101906104fd919061244a565b6110f7565b005b34801561051057600080fd5b5061052b600480360381019061052691906123cf565b61110d565b005b34801561053957600080fd5b50610554600480360381019061054f91906124c2565b61116f565b005b34801561056257600080fd5b5061057d60048036038101906105789190612582565b611208565b60405161058a9190612b0f565b60405180910390f35b34801561059f57600080fd5b506105a8611284565b6040516105b59190612dd1565b60405180910390f35b3480156105ca57600080fd5b506105e560048036038101906105e09190612344565b61128a565b6040516105f29190612af4565b60405180910390f35b34801561060757600080fd5b50610622600480360381019061061d919061231b565b61131e565b60405161062f9190612dd1565b60405180910390f35b34801561064457600080fd5b5061065f600480360381019061065a919061231b565b611336565b005b600b60009054906101000a900460ff1681565b60007f80ac58cd000000000000000000000000000000000000000000000000000000007bffffffffffffffffffffffffffffffffffffffffffffffffffffffff1916827bffffffffffffffffffffffffffffffffffffffffffffffffffffffff1916148061073f57507f5b5e139f000000000000000000000000000000000000000000000000000000007bffffffffffffffffffffffffffffffffffffffffffffffffffffffff1916827bffffffffffffffffffffffffffffffffffffffffffffffffffffffff1916145b8061074f575061074e8261142e565b5b9050919050565b60606000805461076590613082565b80601f016020809104026020016040519081016040528092919081815260200182805461079190613082565b80156107de5780601f106107b3576101008083540402835291602001916107de565b820191906000526020600020905b8154815290600101906020018083116107c157829003601f168201915b5050505050905090565b60006107f382611498565b610832576040517f08c379a000000000000000000000000000000000000000000000000000000000815260040161082990612cd1565b60405180910390fd5b6004600083815260200190815260200160002060009054906101000a900473ffffffffffffffffffffffffffffffffffffffff169050919050565b610875611504565b73ffffffffffffffffffffffffffffffffffffffff16610893610e0e565b73ffffffffffffffffffffffffffffffffffffffff16146108e9576040517f08c379a00000000000000000000000000000000000000000000000000000000081526004016108e090612d11565b60405180910390fd5b8181600c91906108fa92919061215d565b505050565b600061090a82610bf0565b90508073ffffffffffffffffffffffffffffffffffffffff168373ffffffffffffffffffffffffffffffffffffffff16141561097b576040517f08c379a000000000000000000000000000000000000000000000000000000000815260040161097290612d31565b60405180910390fd5b8073ffffffffffffffffffffffffffffffffffffffff1661099a611504565b73ffffffffffffffffffffffffffffffffffffffff1614806109c957506109c8816109c3611504565b61128a565b5b610a08576040517f08c379a00000000000000000000000000000000000000000000000000000000081526004016109ff90612c51565b60405180910390fd5b610a12838361150c565b505050565b60085481565b610a2e610a28611504565b826115c5565b610a6d576040517f08c379a0000000000000000000000000000000000000000000000000000000008152600401610a6490612d51565b60405180910390fd5b610a788383836116a3565b505050565b610a85611504565b73ffffffffffffffffffffffffffffffffffffffff16610aa3610e0e565b73ffffffffffffffffffffffffffffffffffffffff1614610af9576040517f08c379a0000000000000000000000000000000000000000000000000000000008152600401610af090612d11565b60405180910390fd5b6000600d60009054906101000a900473ffffffffffffffffffffffffffffffffffffffff1673ffffffffffffffffffffffffffffffffffffffff1647604051610b4190612a5d565b60006040518083038185875af1925050503d8060008114610b7e576040519150601f19603f3d011682016040523d82523d6000602084013e610b83565b606091505b5050905080610bc7576040517f08c379a0000000000000000000000000000000000000000000000000000000008152600401610bbe90612db1565b60405180910390fd5b50565b610be58383836040518060200160405280600081525061110d565b505050565b600a5481565b6000806002600084815260200190815260200160002060009054906101000a900473ffffffffffffffffffffffffffffffffffffffff169050600073ffffffffffffffffffffffffffffffffffffffff168173ffffffffffffffffffffffffffffffffffffffff161415610c99576040517f08c379a0000000000000000000000000000000000000000000000000000000008152600401610c9090612c91565b60405180910390fd5b80915050919050565b60075481565b60008073ffffffffffffffffffffffffffffffffffffffff168273ffffffffffffffffffffffffffffffffffffffff161415610d19576040517f08c379a0000000000000000000000000000000000000000000000000000000008152600401610d1090612c71565b60405180910390fd5b600360008373ffffffffffffffffffffffffffffffffffffffff1673ffffffffffffffffffffffffffffffffffffffff168152602001908152602001600020549050919050565b610d68611504565b73ffffffffffffffffffffffffffffffffffffffff16610d86610e0e565b73ffffffffffffffffffffffffffffffffffffffff1614610ddc576040517f08c379a0000000000000000000000000000000000000000000000000000000008152600401610dd390612d11565b60405180910390fd5b610de6600061190a565b565b600d60009054906101000a900473ffffffffffffffffffffffffffffffffffffffff1681565b6000600660009054906101000a900473ffffffffffffffffffffffffffffffffffffffff16905090565b606060018054610e4790613082565b80601f0160208091040260200160405190810160405280929190818152602001828054610e7390613082565b8015610ec05780601f10610e9557610100808354040283529160200191610ec0565b820191906000526020600020905b815481529060010190602001808311610ea357829003601f168201915b5050505050905090565b600b60009054906101000a900460ff16610f19576040517f08c379a0000000000000000000000000000000000000000000000000000000008152600401610f1090612d91565b60405180910390fd5b60075481610f279190612f2c565b3414610f68576040517f08c379a0000000000000000000000000000000000000000000000000000000008152600401610f5f90612cf1565b60405180910390fd5b60095481600854610f799190612ea5565b1115610fba576040517f08c379a0000000000000000000000000000000000000000000000000000000008152600401610fb190612bb1565b60405180910390fd5b600a5481600e60003373ffffffffffffffffffffffffffffffffffffffff1673ffffffffffffffffffffffffffffffffffffffff168152602001908152602001600020546110089190612ea5565b1115611049576040517f08c379a000000000000000000000000000000000000000000000000000000000815260040161104090612b51565b60405180910390fd5b80600e60003373ffffffffffffffffffffffffffffffffffffffff1673ffffffffffffffffffffffffffffffffffffffff16815260200190815260200160002060008282546110989190612ea5565b9250508190555060005b818110156110f357600060016008546110bb9190612ea5565b9050600860008154809291906110d0906130e5565b91905055506110df33826119d0565b5080806110eb906130e5565b9150506110a2565b5050565b611109611102611504565b83836119ee565b5050565b61111e611118611504565b836115c5565b61115d576040517f08c379a000000000000000000000000000000000000000000000000000000000815260040161115490612d51565b60405180910390fd5b61116984848484611b5b565b50505050565b611177611504565b73ffffffffffffffffffffffffffffffffffffffff16611195610e0e565b73ffffffffffffffffffffffffffffffffffffffff16146111eb576040517f08c379a00000000000000000000000000000000000000000000000000000000081526004016111e290612d11565b60405180910390fd5b80600b60006101000a81548160ff02191690831515021790555050565b606061121382611498565b611252576040517f08c379a000000000000000000000000000000000000000000000000000000000815260040161124990612d71565b60405180910390fd5b600c61125d83611bb7565b60405160200161126e929190612a2e565b6040516020818303038152906040529050919050565b60095481565b6000600560008473ffffffffffffffffffffffffffffffffffffffff1673ffffffffffffffffffffffffffffffffffffffff16815260200190815260200160002060008373ffffffffffffffffffffffffffffffffffffffff1673ffffffffffffffffffffffffffffffffffffffff16815260200190815260200160002060009054906101000a900460ff16905092915050565b600e6020528060005260406000206000915090505481565b61133e611504565b73ffffffffffffffffffffffffffffffffffffffff1661135c610e0e565b73ffffffffffffffffffffffffffffffffffffffff16146113b2576040517f08c379a00000000000000000000000000000000000000000000000000000000081526004016113a990612d11565b60405180910390fd5b600073ffffffffffffffffffffffffffffffffffffffff168173ffffffffffffffffffffffffffffffffffffffff161415611422576040517f08c379a000000000000000000000000000000000000000000000000000000000815260040161141990612b71565b60405180910390fd5b61142b8161190a565b50565b60007f01ffc9a7000000000000000000000000000000000000000000000000000000007bffffffffffffffffffffffffffffffffffffffffffffffffffffffff1916827bffffffffffffffffffffffffffffffffffffffffffffffffffffffff1916149050919050565b60008073ffffffffffffffffffffffffffffffffffffffff166002600084815260200190815260200160002060009054906101000a900473ffffffffffffffffffffffffffffffffffffffff1673ffffffffffffffffffffffffffffffffffffffff1614159050919050565b600033905090565b816004600083815260200190815260200160002060006101000a81548173ffffffffffffffffffffffffffffffffffffffff021916908373ffffffffffffffffffffffffffffffffffffffff160217905550808273ffffffffffffffffffffffffffffffffffffffff1661157f83610bf0565b73ffffffffffffffffffffffffffffffffffffffff167f8c5be1e5ebec7d5bd14f71427d1e84f3dd0314c0f7b2291e5b200ac8c7c3b92560405160405180910390a45050565b60006115d082611498565b61160f576040517f08c379a000000000000000000000000000000000000000000000000000000000815260040161160690612c31565b60405180910390fd5b600061161a83610bf0565b90508073ffffffffffffffffffffffffffffffffffffffff168473ffffffffffffffffffffffffffffffffffffffff16148061165c575061165b818561128a565b5b8061169a57508373ffffffffffffffffffffffffffffffffffffffff16611682846107e8565b73ffffffffffffffffffffffffffffffffffffffff16145b91505092915050565b8273ffffffffffffffffffffffffffffffffffffffff166116c382610bf0565b73ffffffffffffffffffffffffffffffffffffffff1614611719576040517f08c379a000000000000000000000000000000000000000000000000000000000815260040161171090612b91565b60405180910390fd5b600073ffffffffffffffffffffffffffffffffffffffff168273ffffffffffffffffffffffffffffffffffffffff161415611789576040517f08c379a000000000000000000000000000000000000000000000000000000000815260040161178090612bf1565b60405180910390fd5b611794838383611d64565b61179f60008261150c565b6001600360008573ffffffffffffffffffffffffffffffffffffffff1673ffffffffffffffffffffffffffffffffffffffff16815260200190815260200160002060008282546117ef9190612f86565b925050819055506001600360008473ffffffffffffffffffffffffffffffffffffffff1673ffffffffffffffffffffffffffffffffffffffff16815260200190815260200160002060008282546118469190612ea5565b92505081905550816002600083815260200190815260200160002060006101000a81548173ffffffffffffffffffffffffffffffffffffffff021916908373ffffffffffffffffffffffffffffffffffffffff160217905550808273ffffffffffffffffffffffffffffffffffffffff168473ffffffffffffffffffffffffffffffffffffffff167fddf252ad1be2c89b69c2b068fc378daa952ba7f163c4a11628f55a4df523b3ef60405160405180910390a4611905838383611d69565b505050565b6000600660009054906101000a900473ffffffffffffffffffffffffffffffffffffffff16905081600660006101000a81548173ffffffffffffffffffffffffffffffffffffffff021916908373ffffffffffffffffffffffffffffffffffffffff1602179055508173ffffffffffffffffffffffffffffffffffffffff168173ffffffffffffffffffffffffffffffffffffffff167f8be0079c531659141344cd1fd0a4f28419497f9722a3daafe3b4186f6b6457e060405160405180910390a35050565b6119ea828260405180602001604052806000815250611d6e565b5050565b8173ffffffffffffffffffffffffffffffffffffffff168373ffffffffffffffffffffffffffffffffffffffff161415611a5d576040517f08c379a0000000000000000000000000000000000000000000000000000000008152600401611a5490612c11565b60405180910390fd5b80600560008573ffffffffffffffffffffffffffffffffffffffff1673ffffffffffffffffffffffffffffffffffffffff16815260200190815260200160002060008473ffffffffffffffffffffffffffffffffffffffff1673ffffffffffffffffffffffffffffffffffffffff16815260200190815260200160002060006101000a81548160ff0219169083151502179055508173ffffffffffffffffffffffffffffffffffffffff168373ffffffffffffffffffffffffffffffffffffffff167f17307eab39ab6107e8899845ad3d59bd9653f200f220920489ca2b5937696c3183604051611b4e9190612af4565b60405180910390a3505050565b611b668484846116a3565b611b7284848484611dc9565b611bb1576040517f08c379a0000000000000000000000000000000000000000000000000000000008152600401611ba890612b31565b60405180910390fd5b50505050565b60606000821415611bff576040518060400160405280600181526020017f30000000000000000000000000000000000000000000000000000000000000008152509050611d5f565b600082905060005b60008214611c31578080611c1a906130e5565b915050600a82611c2a9190612efb565b9150611c07565b60008167ffffffffffffffff811115611c73577f4e487b7100000000000000000000000000000000000000000000000000000000600052604160045260246000fd5b6040519080825280601f01601f191660200182016040528015611ca55781602001600182028036833780820191505090505b5090505b60008514611d5857600182611cbe9190612f86565b9150600a85611ccd919061312e565b6030611cd99190612ea5565b60f81b818381518110611d15577f4e487b7100000000000000000000000000000000000000000000000000000000600052603260045260246000fd5b60200101907effffffffffffffffffffffffffffffffffffffffffffffffffffffffffffff1916908160001a905350600a85611d519190612efb565b9450611ca9565b8093505050505b919050565b505050565b505050565b611d788383611f60565b611d856000848484611dc9565b611dc4576040517f08c379a0000000000000000000000000000000000000000000000000000000008152600401611dbb90612b31565b60405180910390fd5b505050565b6000611dea8473ffffffffffffffffffffffffffffffffffffffff1661213a565b15611f53578373ffffffffffffffffffffffffffffffffffffffff1663150b7a02611e13611504565b8786866040518563ffffffff1660e01b8152600401611e359493929190612aa8565b602060405180830381600087803b158015611e4f57600080fd5b505af1925050508015611e8057506040513d601f19601f82011682018060405250810190611e7d9190612514565b60015b611f03573d8060008114611eb0576040519150601f19603f3d011682016040523d82523d6000602084013e611eb5565b606091505b50600081511415611efb576040517f08c379a0000000000000000000000000000000000000000000000000000000008152600401611ef290612b31565b60405180910390fd5b805181602001fd5b63150b7a0260e01b7bffffffffffffffffffffffffffffffffffffffffffffffffffffffff1916817bffffffffffffffffffffffffffffffffffffffffffffffffffffffff191614915050611f58565b600190505b949350505050565b600073ffffffffffffffffffffffffffffffffffffffff168273ffffffffffffffffffffffffffffffffffffffff161415611fd0576040517f08c379a0000000000000000000000000000000000000000000000000000000008152600401611fc790612cb1565b60405180910390fd5b611fd981611498565b15612019576040517f08c379a000000000000000000000000000000000000000000000000000000000815260040161201090612bd1565b60405180910390fd5b61202560008383611d64565b6001600360008473ffffffffffffffffffffffffffffffffffffffff1673ffffffffffffffffffffffffffffffffffffffff16815260200190815260200160002060008282546120759190612ea5565b92505081905550816002600083815260200190815260200160002060006101000a81548173ffffffffffffffffffffffffffffffffffffffff021916908373ffffffffffffffffffffffffffffffffffffffff160217905550808273ffffffffffffffffffffffffffffffffffffffff16600073ffffffffffffffffffffffffffffffffffffffff167fddf252ad1be2c89b69c2b068fc378daa952ba7f163c4a11628f55a4df523b3ef60405160405180910390a461213660008383611d69565b5050565b6000808273ffffffffffffffffffffffffffffffffffffffff163b119050919050565b82805461216990613082565b90600052602060002090601f01602090048101928261218b57600085556121d2565b82601f106121a457803560ff19168380011785556121d2565b828001600101855582156121d2579182015b828111156121d15782358255916020019190600101906121b6565b5b5090506121df91906121e3565b5090565b5b808211156121fc5760008160009055506001016121e4565b5090565b600061221361220e84612e11565b612dec565b90508281526020810184848401111561222b57600080fd5b612236848285613040565b509392505050565b60008135905061224d81613757565b92915050565b6000813590506122628161376e565b92915050565b60008135905061227781613785565b92915050565b60008151905061228c81613785565b92915050565b600082601f8301126122a357600080fd5b81356122b3848260208601612200565b91505092915050565b60008083601f8401126122ce57600080fd5b8235905067ffffffffffffffff8111156122e757600080fd5b6020830191508360018202830111156122ff57600080fd5b9250929050565b6000813590506123158161379c565b92915050565b60006020828403121561232d57600080fd5b600061233b8482850161223e565b91505092915050565b6000806040838503121561235757600080fd5b60006123658582860161223e565b92505060206123768582860161223e565b9150509250929050565b60008060006060848603121561239557600080fd5b60006123a38682870161223e565b93505060206123b48682870161223e565b92505060406123c586828701612306565b9150509250925092565b600080600080608085870312156123e557600080fd5b60006123f38782880161223e565b94505060206124048782880161223e565b935050604061241587828801612306565b925050606085013567ffffffffffffffff81111561243257600080fd5b61243e87828801612292565b91505092959194509250565b6000806040838503121561245d57600080fd5b600061246b8582860161223e565b925050602061247c85828601612253565b9150509250929050565b6000806040838503121561249957600080fd5b60006124a78582860161223e565b92505060206124b885828601612306565b9150509250929050565b6000602082840312156124d457600080fd5b60006124e284828501612253565b91505092915050565b6000602082840312156124fd57600080fd5b600061250b84828501612268565b91505092915050565b60006020828403121561252657600080fd5b60006125348482850161227d565b91505092915050565b6000806020838503121561255057600080fd5b600083013567ffffffffffffffff81111561256a57600080fd5b612576858286016122bc565b92509250509250929050565b60006020828403121561259457600080fd5b60006125a284828501612306565b91505092915050565b6125b481612fcc565b82525050565b6125c381612fba565b82525050565b6125d281612fde565b82525050565b60006125e382612e57565b6125ed8185612e6d565b93506125fd81856020860161304f565b6126068161321b565b840191505092915050565b600061261c82612e62565b6126268185612e89565b935061263681856020860161304f565b61263f8161321b565b840191505092915050565b600061265582612e62565b61265f8185612e9a565b935061266f81856020860161304f565b80840191505092915050565b6000815461268881613082565b6126928186612e9a565b945060018216600081146126ad57600181146126be576126f1565b60ff198316865281860193506126f1565b6126c785612e42565b60005b838110156126e9578154818901526001820191506020810190506126ca565b838801955050505b50505092915050565b6000612707603283612e89565b91506127128261322c565b604082019050919050565b600061272a601983612e89565b91506127358261327b565b602082019050919050565b600061274d602683612e89565b9150612758826132a4565b604082019050919050565b6000612770602583612e89565b915061277b826132f3565b604082019050919050565b6000612793600983612e89565b915061279e82613342565b602082019050919050565b60006127b6601c83612e89565b91506127c18261336b565b602082019050919050565b60006127d9602483612e89565b91506127e482613394565b604082019050919050565b60006127fc601983612e89565b9150612807826133e3565b602082019050919050565b600061281f602c83612e89565b915061282a8261340c565b604082019050919050565b6000612842603883612e89565b915061284d8261345b565b604082019050919050565b6000612865602a83612e89565b9150612870826134aa565b604082019050919050565b6000612888602983612e89565b9150612893826134f9565b604082019050919050565b60006128ab602083612e89565b91506128b682613548565b602082019050919050565b60006128ce602c83612e89565b91506128d982613571565b604082019050919050565b60006128f1600583612e9a565b91506128fc826135c0565b600582019050919050565b6000612914601383612e89565b915061291f826135e9565b602082019050919050565b6000612937602083612e89565b915061294282613612565b602082019050919050565b600061295a602183612e89565b91506129658261363b565b604082019050919050565b600061297d600083612e7e565b91506129888261368a565b600082019050919050565b60006129a0603183612e89565b91506129ab8261368d565b604082019050919050565b60006129c3601683612e89565b91506129ce826136dc565b602082019050919050565b60006129e6601483612e89565b91506129f182613705565b602082019050919050565b6000612a09601283612e89565b9150612a148261372e565b602082019050919050565b612a2881613036565b82525050565b6000612a3a828561267b565b9150612a46828461264a565b9150612a51826128e4565b91508190509392505050565b6000612a6882612970565b9150819050919050565b6000602082019050612a8760008301846125ba565b92915050565b6000602082019050612aa260008301846125ab565b92915050565b6000608082019050612abd60008301876125ba565b612aca60208301866125ba565b612ad76040830185612a1f565b8181036060830152612ae981846125d8565b905095945050505050565b6000602082019050612b0960008301846125c9565b92915050565b60006020820190508181036000830152612b298184612611565b905092915050565b60006020820190508181036000830152612b4a816126fa565b9050919050565b60006020820190508181036000830152612b6a8161271d565b9050919050565b60006020820190508181036000830152612b8a81612740565b9050919050565b60006020820190508181036000830152612baa81612763565b9050919050565b60006020820190508181036000830152612bca81612786565b9050919050565b60006020820190508181036000830152612bea816127a9565b9050919050565b60006020820190508181036000830152612c0a816127cc565b9050919050565b60006020820190508181036000830152612c2a816127ef565b9050919050565b60006020820190508181036000830152612c4a81612812565b9050919050565b60006020820190508181036000830152612c6a81612835565b9050919050565b60006020820190508181036000830152612c8a81612858565b9050919050565b60006020820190508181036000830152612caa8161287b565b9050919050565b60006020820190508181036000830152612cca8161289e565b9050919050565b60006020820190508181036000830152612cea816128c1565b9050919050565b60006020820190508181036000830152612d0a81612907565b9050919050565b60006020820190508181036000830152612d2a8161292a565b9050919050565b60006020820190508181036000830152612d4a8161294d565b9050919050565b60006020820190508181036000830152612d6a81612993565b9050919050565b60006020820190508181036000830152612d8a816129b6565b9050919050565b60006020820190508181036000830152612daa816129d9565b9050919050565b60006020820190508181036000830152612dca816129fc565b9050919050565b6000602082019050612de66000830184612a1f565b92915050565b6000612df6612e07565b9050612e0282826130b4565b919050565b6000604051905090565b600067ffffffffffffffff821115612e2c57612e2b6131ec565b5b612e358261321b565b9050602081019050919050565b60008190508160005260206000209050919050565b600081519050919050565b600081519050919050565b600082825260208201905092915050565b600081905092915050565b600082825260208201905092915050565b600081905092915050565b6000612eb082613036565b9150612ebb83613036565b9250827fffffffffffffffffffffffffffffffffffffffffffffffffffffffffffffffff03821115612ef057612eef61315f565b5b828201905092915050565b6000612f0682613036565b9150612f1183613036565b925082612f2157612f2061318e565b5b828204905092915050565b6000612f3782613036565b9150612f4283613036565b9250817fffffffffffffffffffffffffffffffffffffffffffffffffffffffffffffffff0483118215151615612f7b57612f7a61315f565b5b828202905092915050565b6000612f9182613036565b9150612f9c83613036565b925082821015612faf57612fae61315f565b5b828203905092915050565b6000612fc582613016565b9050919050565b6000612fd782613016565b9050919050565b60008115159050919050565b60007fffffffff0000000000000000000000000000000000000000000000000000000082169050919050565b600073ffffffffffffffffffffffffffffffffffffffff82169050919050565b6000819050919050565b82818337600083830152505050565b60005b8381101561306d578082015181840152602081019050613052565b8381111561307c576000848401525b50505050565b6000600282049050600182168061309a57607f821691505b602082108114156130ae576130ad6131bd565b5b50919050565b6130bd8261321b565b810181811067ffffffffffffffff821117156130dc576130db6131ec565b5b80604052505050565b60006130f082613036565b91507fffffffffffffffffffffffffffffffffffffffffffffffffffffffffffffffff8214156131235761312261315f565b5b600182019050919050565b600061313982613036565b915061314483613036565b9250826131545761315361318e565b5b828206905092915050565b7f4e487b7100000000000000000000000000000000000000000000000000000000600052601160045260246000fd5b7f4e487b7100000000000000000000000000000000000000000000000000000000600052601260045260246000fd5b7f4e487b7100000000000000000000000000000000000000000000000000000000600052602260045260246000fd5b7f4e487b7100000000000000000000000000000000000000000000000000000000600052604160045260246000fd5b6000601f19601f8301169050919050565b7f4552433732313a207472616e7366657220746f206e6f6e20455243373231526560008201527f63656976657220696d706c656d656e7465720000000000000000000000000000602082015250565b7f6578636565646564206d61782077616c6c6574206c696d697400000000000000600082015250565b7f4f776e61626c653a206e6577206f776e657220697320746865207a65726f206160008201527f6464726573730000000000000000000000000000000000000000000000000000602082015250565b7f4552433732313a207472616e736665722066726f6d20696e636f72726563742060008201527f6f776e6572000000000000000000000000000000000000000000000000000000602082015250565b7f536f6c64204f7574210000000000000000000000000000000000000000000000600082015250565b7f4552433732313a20746f6b656e20616c7265616479206d696e74656400000000600082015250565b7f4552433732313a207472616e7366657220746f20746865207a65726f2061646460008201527f7265737300000000000000000000000000000000000000000000000000000000602082015250565b7f4552433732313a20617070726f766520746f2063616c6c657200000000000000600082015250565b7f4552433732313a206f70657261746f7220717565727920666f72206e6f6e657860008201527f697374656e7420746f6b656e0000000000000000000000000000000000000000602082015250565b7f4552433732313a20617070726f76652063616c6c6572206973206e6f74206f7760008201527f6e6572206e6f7220617070726f76656420666f7220616c6c0000000000000000602082015250565b7f4552433732313a2062616c616e636520717565727920666f7220746865207a6560008201527f726f206164647265737300000000000000000000000000000000000000000000602082015250565b7f4552433732313a206f776e657220717565727920666f72206e6f6e657869737460008201527f656e7420746f6b656e0000000000000000000000000000000000000000000000602082015250565b7f4552433732313a206d696e7420746f20746865207a65726f2061646472657373600082015250565b7f4552433732313a20617070726f76656420717565727920666f72206e6f6e657860008201527f697374656e7420746f6b656e0000000000000000000000000000000000000000602082015250565b7f2e6a736f6e000000000000000000000000000000000000000000000000000000600082015250565b7f77726f6e67206d696e74696e672076616c756500000000000000000000000000600082015250565b7f4f776e61626c653a2063616c6c6572206973206e6f7420746865206f776e6572600082015250565b7f4552433732313a20617070726f76616c20746f2063757272656e74206f776e6560008201527f7200000000000000000000000000000000000000000000000000000000000000602082015250565b50565b7f4552433732313a207472616e736665722063616c6c6572206973206e6f74206f60008201527f776e6572206e6f7220617070726f766564000000000000000000000000000000602082015250565b7f546f6b656e20646f6573206e6f74206578697374732100000000000000000000600082015250565b7f6d696e74696e67206e6f7420656e61626c656421000000000000000000000000600082015250565b7f7769746864726177616c206661696c6564210000000000000000000000000000600082015250565b61376081612fba565b811461376b57600080fd5b50565b61377781612fde565b811461378257600080fd5b50565b61378e81612fea565b811461379957600080fd5b50565b6137a581613036565b81146137b057600080fd5b5056fea26469706673582212201d33ef929098dfd046957793fad4549b275c8462807b2857e8351a73a390a68364736f6c63430008040033",
	"linkReferences": {},
	"deployedLinkReferences": {}
}